:020000042001D9
:100000009711FF5F938181289702000093828205F8
:100010007390523093020000638402007350107C8E
:100020001701FFDF130101FE9700FFDF938080FDC2
:10003000638300008290732540F181450146812051
:100040009700FFDF938000FC63830000829097029B
:1000500000009382C2007390523003230000F5BF6A
:10006000F322203473231034F3233034D5BF82803D
:10007000411122C6000801003244410182800684F9
:100080009711FF5F93818120138141CE8142130339
:1000900000406385A2001A918502E5BF137101FF3C
:1000A0009302000063195508976200009382822D25
:1000B0001703FF5F130303F593838184638C62004E
:1000C000635A730003A5020091022320A3001103C9
:1000D000E34A73FE976200009382C22A1703FFE788
:1000E000130343F29703FFE79383C3F1638C62002A
:1000F000635A730003A5020091022320A300110399
:10010000E34A73FE0F1000001713FF5F1303839C75
:100110009383418E63577300232003001103E34D43
:1001200073FE11C20296171500001305C50CEF10DF
:100130002008EF10800F2D3FF32710303707010004
:1001400013078702F98F89CBF32700300967D98F0E
:100150007390073073503000054597550000938524
:10016000A56317560000130666633120EF10A00543
:10017000A28082808280411106C2F32240F11303E3
:1001800000006385620073005010F5BF5D2292404D
:040190004101828027
:10020000011106CE22CC00102326A4FEB727011030
:100210009387C70323A00700B7270110938787039D
:100220009443B72701109387870337070300558F3F
:1002300098C3B7370110A10723A00700B7370110F3
:10024000B10723A0070015282A878327C4FE335748
:10025000F702B7370110E1077D1798C3B7370110D0
:10026000A107054798C3B7370110B107054798C3E1
:100270000100F240624405618280411122C60008FB
:10028000B7D712133E85324441018280797122D65C
:100290000018232EA4FC232604FE31A08327C4FECD
:1002A00085072326F4FE8327C4FE0327C4FDE3E766
:1002B000E7FE0100325445618280011106CE22CC56
:1002C0000010232604FE0327C4FEB7070200D98FBF
:1002D0002326F4FE8327C4FE93E717002326F4FEAB
:1002E0008327C4FE93E707272326F4FE8327C4FE53
:1002F00093E707402326F4FEB7870010A1070327E2
:10030000C4FE98C31305803E51370100B787001023
:10031000A1079C43B7870010A1079443B78700103B
:10032000A1074167558F98C30100F24062440561FF
:100330008280011106CE22CC00104137F16713856F
:1003400007207D3DB75701201385476CEF00300132
:10035000B75701201385C76EEF007000B757012013
:1003600013850770EF00A07FB75701201385077131
:10037000EF00E07E37050800612837052000492896
:10038000370520008520232604FE29A8370508000C
:1003900065209567138507E2D53D8327C4FE850751
:1003A0002326F4FE0327C4FE9307F018E3D0E7FEEC
:1003B000B7E7F50513850710D13DF1B7011122CE3E
:1003C00000102326A4FEB7270110B1079443B727D6
:1003D0000110B1070327C4FE558F98C30100724472
:1003E00005618280011122CE00102326A4FEB727CA
:1003F0000110B10794438327C4FE13C7F7FFB72743
:100400000110B107758F98C30100724405618280A5
:10041000011122CE00102326A4FEB7270110A10748
:100420009443B7270110A1070327C4FE558F98C333
:100430000100724405618280797106D622D40018C9
:10044000232EA4FCB7270110B1079843B707680013
:10045000F98F2326F4FE0327C4FD8327C4FEF98FFA
:1004600089C70325C4FDBD3F21A00325C4FDB937BD
:100470000100B25022544561828083D7C50001112A
:1004800022CC26CA06CE4AC84EC613F78700AA84D5
:100490002E8465E7D8416347E000B8416344E0003B
:1004A0000145C1A058546DDF03A90400939637019C
:1004B00023A0040063DE060668488357C400918BBE
:1004C00099C75C401D8D5C5899C33C401D8D5C54A0
:1004D0000C502A86814626858297FD570357C40013
:1004E000631DF5009440F54763E4D708B707402043
:1004F0008507B3D7D700858BA5CF1C4823220400DE
:100500001CC09317370163D80700FD576314F5002B
:100510009C4091E368C84C5823A02401D1D1930793
:1005200044046384F5002685C92E232A04028DBF66
:100530000C508546014626850297FD57E31FF5F6C8
:100540009C40A5DF75476385E70059476395E70041
:1005500023A02401B1B78357C40093E707042316EF
:10056000F400F2406244D2444249B24905618280BB
:10057000136707042316E400EDB783A90501E3819F
:1005800009F203A905008D8B23A0350133093941F8
:10059000014791E3D84918C4E35420F11C540C508E
:1005A000CA864E8626858297634AA0008357C40078
:1005B0007D5593E707042316F40065B7AA9933091C
:1005C000A940D9BF9C49B9CF011122CC06CE2A84BB
:1005D00011C51C4D81E72EC61922B2459757000060
:1005E00093878717639BF5004C408397C50095C799
:1005F00022856244F240056149B597570000938710
:10060000A7176394F5000C44CDB797570000938764
:10061000A712E39CF5FC4C44C9BFF240624401457B
:100620000561828001458280411122C406C62A8468
:100630002316B5002317C50023200500232205003B
:10064000232405002322050623280500232A05006C
:10065000232C0500214681451305C505DD2A970792
:100660000000938767535CD0970700009387C755B6
:100670001CD4970700009387075A5CD497070000A3
:100680009387C75C00D01CD8B240224441018280CD
:1006900097050000938545F3B9A2411126C21306C0
:1006A00080069384F5FFB384C4024AC02E8922C415
:1006B00006C693854407C52C2A8419C92320050042
:1006C00023222501310508C4138684068145512261
:1006D0002285B240224492440249410182801C4D4D
:1006E000BDE3411106C622C497070000938787FA2D
:1006F0001CD59707FF5F9387A7399C4323240504E4
:1007000023260504232805046314F50085471CCD22
:100710002A841D2848C02285052808C422852D204A
:1007200048C4484001469145013708440546A5455F
:10073000E53D48440946C945C53D85471CCCB24006
:10074000224441018280828041119707FF5F938795
:10075000273426C284434AC006C69C4C22C42A8938
:1007600099E32685AD3F938484048044DC40FD17E3
:1007700063D607009C40B1CF8440C5BF0317C400B7
:1007800031E7C177850723220406232004002322B2
:100790000400232404005CC423280400232A04004A
:1007A000232C0400214681451305C4055D20232A1E
:1007B0000402232C04022324040423260404228597
:1007C000B2402244924402494101828013048406CB
:1007D00079BF91454A85D13588C02A8451FDB147FA
:1007E0002320F900E9BF797122D44AD052CC56CAED
:1007F0005AC85EC606D626D24ECE2A8AAE8A1304C0
:1008000085040149054BFD5B09ECB25022544A8531
:1008100092540259F249624AD24A424BB24B456164
:100820008280044483294400FD1963D409000040F8
:10083000E1BF83D7C400637BFB008397E400638739
:100840007701A6855285829A3369A900938484062C
:10085000E1BF3D432A876373C3029377F700BDEF7F
:10086000ADE5937606FF3D8ABA960CC34CC30CC720
:100870004CC74107E36BD7FE11E28280B306C34049
:100880008A069702000096966780A6002307B700A5
:10089000A306B7002306B700A305B7002305B700DA
:1008A000A304B7002304B700A303B7002303B700D2
:1008B000A302B7002302B700A301B7002301B700CA
:1008C000A300B7002300B700828093F5F50F93963D
:1008D0008500D58D93960501D58D61B79396270038
:1008E0009702000096968682E78086FA9680C11766
:1008F0001D8F3E96E374C3F8A5B7CDC583A7C5FF8A
:10090000411122C406C626C21384C5FF63D3070063
:100910003E94AA8449259707FF5F9387A71B9C43B2
:1009200089EF232204009707FF5F23A5871A22443B
:10093000B24026859244410185A5637EF4001440AF
:100940003307D4006396E7009843DC43369718C01A
:100950005CC0D1BFBA87D84319C3E37DE4FE94439A
:100960003386D700631F86001040B29694C3338647
:10097000D700E31EC7FA10435843B29694C3D8C3B6
:100980007DB76375C400B1479CC055B71040B3062E
:10099000C4006316D70014435843B29614C058C01D
:1009A000C0C371B78280011126CA93843500F198C3
:1009B00006CE22CC4AC84EC6A104B14763F7F40460
:1009C000B14463E6B4042A89F9239707FF5F93874C
:1009D000671098433A8431E49707FF5F9387C70F06
:1009E0009C4381EB81454A8551229707FF5F23A5F0
:1009F000A70EA6854A859D2AFD5963193507B1477B
:100A00002320F9004A85492B29A0E3DC04FAB147E9
:100A10001CC10145F2406244D2444249B2490561D9
:100A200082801C40858F63C00704AD4663F6F600E4
:100A30001CC03E9404C001A85C40631487021707E1
:100A4000FF5F2329F7084A85812B1305B40093071C
:100A5000440061993307F54055DF3A94898F1CC0F3
:100A600055BF5CC3CDB722874040B5B713043500EE
:100A70007198E30185FCB305A4404A85C528E31BB2
:100A800035FBB5BF011126CA4AC806CE22CC4EC6D8
:100A900052C4AA842E8901C51C4D91E389319C4C16
:100AA000804499E326852539975700009387C7CA64
:100AB000631CF402C0408357C400A18BB1C71C481B
:100AC000A1C7FD59294A1C4483450900FD17B1E916
:100AD0001CC463DE07062286A94526858D2AFD579C
:100AE0006308F502294535A0975700009387C7C8CA
:100AF0006314F4008044C1B7975700009387C7C3BD
:100B0000E31BF4FAC04445BFA28526850D2C55D9B8
:100B10007D55F2406244D2444249B249224A0561BD
:100B200082801CC4050963D70700184C63CBE7001B
:100B3000638945011C401387170018C02380B70044
:100B400059B7228626852122E31F35F7D1B71C40ED
:100B50001387170018C029472380E70061B797075C
:100B6000FF5F9387A7F2AA85884329BF411122C45A
:100B70002A842E8523A0018E06C6A92BFD57631754
:100B8000F5009387018E9C4391C31CC0B240224460
:100B900041018280411122C42E848395E50006C65E
:100BA000ED2E634905007C48AA977CC8B2402244D8
:100BB000410182808357C4007D777D17F98F23160A
:100BC000F400EDB783D7C500011122CC26CA4AC86C
:100BD0004EC606CE93F70710AA842E843289B689B2
:100BE00091C78395E5008946014671248357C40067
:100BF0007D777D17F98F2316F4008315E400624496
:100C0000F240CE864A86B24942492685D2440561E1
:100C100009A2411122C42E848395E50006C6A12CA9
:100C2000FD570357C400631BF500FD77FD17F98FCF
:100C30002316F400B2402244410182808567D98F97
:100C40002316F40068C8FDB78395E50009A40111D7
:100C500022CC26CA4AC806CE4EC6AA842E89328421
:100C600001C51C4D91E3A53C975700009387C7AE83
:100C7000631BF406C0401C4C1CC48357C400A18BEA
:100C8000D9C31C48C9C31C4808409379F90F13798C
:100C9000F90F1D8D5C486347F500A2852685EFF0AE
:100CA0007F9235E51C440505FD171CC41C401387C5
:100CB000170018C0238037015C486389A700835759
:100CC000C400858B89CBA9476317F900A2852685C7
:100CD000EFF05F8F0DEDF24062444A85D244424905
:100CE000B24905618280975700009387E7A8631493
:100CF000F400804449B7975700009387E7A3E31CAB
:100D0000F4F6C0448DBFA285268515282DDD7D59BA
:100D1000D9B7411122C42A842E85B285368623A0F4
:100D2000018E06C63929FD576317F5009387018E9A
:100D30009C4391C31CC0B2402244410182804111B6
:100D40009707FF5F938787D426C2844322C44AC093
:100D500006C62A892E8489C49C4C99E32685413293
:100D6000975700009387479F631CF402C040031706
:100D7000C40093170701C18393F68700B5EE93F67D
:100D800007019DEEA5472320F900136707042316EA
:100D9000E4007D55B24022449244024941018280E0
:100DA000975700009387479D6314F4008044C1B7B0
:100DB0009757000093874798E31BF4FAC04445BF58
:100DC000918B8DC74C5889C9930744046384F500FF
:100DD0004A852536232A04028357C40023220400AF
:100DE00093F7B7FD2316F4001C481CC08357C400BA
:100DF00093E787002316F4001C4881EF8357C40053
:100E00001307002093F707286385E700A2854A852A
:100E1000ED208357C40013F7170005C75C4823244F
:100E20000400B307F0401CCC1C480145A5F783170C
:100E3000C40013F7070839DF93E707042316F4000B
:100E400089BF898B014791E3584818C4F1BF41110C
:100E500022C42A842E8523A0018E06C6752AFD573A
:100E60006317F5009387018E9C4391C31CC0B24069
:100E7000224441018280411122C42A842E85B285F8
:100E8000368623A0018E06C6E52AFD576317F500B6
:100E90009387018E9C4391C31CC0B2402244410100
:100EA00082801971A6DAAE848395E500A2DC86DE25
:100EB000328463DC050083D7C40023A0060093F7C7
:100EC00007089DE39307004015A0300836C6E528C3
:100ED000B246E34205FE7247BD67F98F7977BA974C
:100EE00093B717009CC2F9BF930700041CC0F650CB
:100EF0006654D65401450961828083D7C50001112B
:100F000022CC06CE26CA4AC8898B2E8489CF930765
:100F100074041CC01CC885475CC8F2406244D244BB
:100F200042490561828074003000AA849D3FA24539
:100F30002A8926858D3C01ED8317C40013F707200D
:100F400069FFF19B93E727002316F400C9B797F7D1
:100F5000FFFF938727749CD48357C40008C008C838
:100F600093E707082316F400A2475CC8B24789CF6D
:100F70008315E4002685AD2801C98357C400F19B81
:100F800093E717002316F4008357C4003369F90070
:100F90002316240159B782808280411122C42A84F9
:100FA0002E85B285368623A0018E06C6FD28FD5704
:100FB0006317F5009387018E9C4391C31CC0B24018
:100FC000224441018280411122C42A842E85B285A7
:100FD00023A0018E06C69520FD576317F500938761
:100FE000018E9C4391C31CC0B240224441018280C7
:100FF000411122C42A842E8523A0018E06C68D208D
:10100000FD576317F5009387018E9C4391C31CC065
:10101000B240224441018280011106CE22CC001050
:101020002326A4FE592A2A87930780051CC3FD574F
:101030003E85F240624405618280011106CE22CCD9
:1010400000102326A4FE2324B4FE852A2A879307B2
:1010500080FA1CC3FD573E85F240624405618280E0
:10106000011122CE00102326A4FE8327C4FEFD1703
:1010700093B7170093F7F70F3E857244056182809E
:10108000011106CE22CC00102326A4FE2324B4FE98
:101090002322C4FE1D222A87930780051CC3FD5707
:1010A0003E85F240624405618280011106CE22CC69
:1010B00000102326A4FE2324B4FE2322C4FEF52818
:1010C0002A87930780051CC3FD573E85F240624482
:1010D00005618280797122D60018232EA4FCB717EF
:1010E000008083A707A92326F4FE138741CE9387A8
:1010F000414E6314F700FD5789A0B717008003A77E
:1011000007A98327C4FD3E979387414E6370F7027A
:10111000B717008003A707A98327C4FD3E97B71719
:10112000008023A8E7A88327C4FE01A8B717008082
:101130001387414E23A8E7A8FD573E8532544561E9
:101140008280797106D622D40018232EA4FC232C89
:10115000B4FC232AC4FC0327C4FD85476309F700B8
:10116000A9282A87930780051CC3FD572DA883272C
:1011700084FD2324F4FE232604FE39A8032784FEDD
:101180008327C4FEBA9783C707003E85A12C832717
:10119000C4FE85072326F4FE0327C4FE832744FDEF
:1011A000E36EF7FC81473E85B25022544561828050
:1011B000AA85814601460145F1A89707FF5F9387FD
:1011C000E78C88438280411122C406C6970700003D
:1011D000938707152A8499C3814589229707FF5F62
:1011E0009387078B88431C5591C382972285EF40D4
:1011F000204C4111975700009387871822C4175439
:1012000000001304E4171D8C26C206C60984BE84A0
:1012100011E4B24022449244410182807D1493172C
:101220002400A6979C438297E5B741119757000089
:101230009387471422C4175400001304A4131D8C71
:1012400026C24AC006C6098481443E896396840248
:101250009757000093870712175400001304441295
:101260001D8C098481443E89639F8400B2402244DE
:10127000924402494101828093972400CA979C437B
:1012800085048297E1B793972400CA979C4385040D
:101290008297D9BF9707FF5F938747849C432A8E25
:1012A0009DE31707FF5F1307A7839707FF5F23A738
:1012B000E78217F5FEDF1305E5D4BA8709C51C419F
:1012C00023AEF18CBA87D8437D487D556347E80447
:1012D000630E0E0203A88708630108049318270011
:1012E000C29823A0C8000323081005463316E60061
:1012F0003363C3002320681023A0D80889466317EE
:10130000DE0083264810558E2322C810930617004E
:101310000A07D4C3BA978CC701458280797152CC31
:1013200056CA5AC85EC606D622D426D24AD04ECE57
:1013300062C42A8B2E8A97FAFE5F938A2A7A854B9B
:1013400003A40A0011C84440832984081389F4FFC8
:101350008A04A294635E0900B25022549254025946
:10136000F249624AD24A424BB24B224C45618280DA
:10137000630E0A00639509007D19F114E1BF93170C
:101380002900CE9783A70708E39847FF5840DC4021
:101390007D176318270323222401F9DF032C44005F
:1013A0006388090083A6091033972B01F98E89EE13
:1013B0008297584083A70A00E31487F9E30EF4FAF2
:1013C00041B723A20400D1BF93162900CE968C42C8
:1013D00083A64910758F01E75A858297D9BF2E855C
:1013E0008297C1BF011106CE22CC00102326A4FE95
:1013F0000327C4FEA9476314F700354511280325C8
:10140000C4FE3920AA873E85F2406244056182808D
:10141000011106CE22CC00102326A4FE8325C4FE93
:10142000B7170080138507A2B128AA873E85F2402E
:10143000624405618280411106C622C40008F1673A
:1014400093850720B7170080138507A2312001007C
:10145000B240224441018280011106CE22CC00100C
:101460002326A4FE2324B4FE8327C4FE9C439C436E
:10147000832584FE0325C4FE82970100F240624466
:1014800005618280011106CE22CC00102326A4FE25
:101490002324B4FE8327C4FE9C43DC43832584FEBF
:1014A0000325C4FE8297AA873E85F2406244056107
:1014B0008280011106CE22CC00102326A4FE232414
:1014C000B4FE8327C4FE9C43DC4B832584FE0325A6
:1014D000C4FE8297AA873E85F240624405618280FD
:1014E000011122CE00102326A4FE0327C4FE9387F9
:1014F00001816315F700B707000211A081473E85FF
:10150000724405618280011122CE00102326A4FEC0
:101510000327C4FE938701816314F700894711A054
:1015200081473E85724405618280011122CE001000
:101530002326A4FE2324B4FE832784FE91E7B70765
:1015400000809387070921A8032784FE8547631736
:10155000F700B70700809387070911A081473E85F0
:10156000724405618280011122CE00102326A4FE60
:101570002324B4FE832784FE99E38D4709A803271B
:1015800084FE85476314F7009D4711A081473E857F
:101590007244056182805D7186C6A2C4CAC2CEC093
:1015A00052DE56DC5ADA5ED862D666D48008232E24
:1015B000A4FA8327C4FB3E8525372326A4FC0327F2
:1015C000C4FCB167F117BA979C432324F4FC0327AA
:1015D000C4FCB167E117BA979C432322F4FC0327AC
:1015E000C4FCB167F117BA979C43032784FCE31846
:1015F000F7FC832784FC3E8C814C93190C00014935
:10160000832744FC3E8A814A336B4901B3EB59017D
:10161000DA875E883E85C285B640264416498649EB
:10162000725AE25A525BC25B325CA25C6161828098
:10163000797106D622D44AD24ED00018232EA4FCAB
:10164000232CB4FC2328C4FC232AD4FC8327C4FD08
:101650002326F4FE8327C4FE3E8559352324A4FEA9
:10166000832784FD8E073E87832784FE3E979167FC
:101670009107BA973E87FD571CC3832784FD8E07C9
:101680003E87832784FE3E979167BA973E878327DC
:1016900004FD1CC3832744FD13D907008149832718
:1016A00084FD8E073E87832784FE3E9791679107CE
:1016B000BA974A8798C381473E85B250225412593F
:1016C000825945618280011106CE22CC001023266A
:1016D00004FEF32740F12326F4FE8327C4FE3E8553
:1016E000EF30F05F2324A4FE032584FEEF30D05CAE
:1016F000AA873E85F240624405618280397106DE28
:1017000022DC80002326A4FC0325C4FCED3B23241B
:10171000A4FE8327C4FC2322F4FE832744FEDC437B
:10172000A9EF232604FE81A08325C4FE0325C4FC63
:10173000ED3B2320A4FE8325C4FE0325C4FC2535F0
:10174000232EA4FC832704FE9C43DC4F8326C4FC89
:1017500001468325C4FD032504FE82978327C4FE2A
:1017600085072326F4FE0327C4FE832784FEE34D6A
:10177000F7FA832744FE0547D8C30100F2506254AC
:1017800021618280397106DE22DC80002326A4FCE0
:101790002324B4FC2322C4FC2320D4FCFD5723269D
:1017A000F4FEEF1000372320A4FE232404FE213F83
:1017B000232EA4FC0325C4FCB933232CA4FC03274B
:1017C00004FE85476308F700832704FE81C783274B
:1017D000C4FE49A0232204FE91A0832544FE0325D4
:1017E000C4FC5133232AA4FC832544FE0325C4FCF6
:1017F0002D3B2324A4FE0327C4FD832784FE631806
:10180000F700032784FC832744FD6300F7022324A9
:1018100004FE832744FE85072322F4FE032744FEAB
:10182000832784FDE34BF7FA11A00100832784FE90
:1018300085C3832784FE9C43DC4F832604FC032658
:1018400044FC832584FC032584FE82972326A4FE82
:101850008327C4FE3E85F2506254216182807971F3
:1018600022D60018232EA4FC232CB4FC232AC4FC6B
:101870002328D4FCFD572326F4FE8327C4FE3E858F
:10188000325445618280011106CE22CC00102326FD
:10189000A4FEEF100028AA873E85F240624405614D
:1018A0008280797106D622D40018232EA4FC232C22
:1018B000B4FCFD572326F4FE39352324A4FE8327E8
:1018C00084FE95C3032784FD854763EFE7008327E4
:1018D00084FE9C43DC43832584FD032584FE82979C
:1018E0002326A4FE11A001008327C4FE3E85B2502A
:1018F000225445618280397106DE22DC8000232675
:10190000A4FC2324B4FCFD572326F4FE832784FC87
:10191000C9C7232404FE453B2320A4FE0325C4FCA1
:10192000DD36232EA4FC232204FE91A0832544FE51
:101930000325C4FC0D39232CA4FC832544FE032578
:10194000C4FCE5362324A4FE032704FE832784FE7B
:101950006318F700032784FC832784FD6300F702E4
:10196000232404FE832744FE85072322F4FE032755
:1019700044FE8327C4FDE34BF7FA11A0010083273F
:1019800084FE81CF832784FE9C43DC53832584FC23
:10199000032584FE82972326A4FE8327C4FE3E856A
:1019A000F250625421618280397106DE22DC8000AF
:1019B0002326A4FC2324B4FCFD572326F4FE83270E
:1019C00084FCC9C7232404FEFD392320A4FE03257B
:1019D000C4FC153E232EA4FC232204FE91A08325E3
:1019E00044FE0325C4FC4136232CA4FC832544FE7D
:1019F0000325C4FC1D3E2324A4FE032704FE8327E5
:101A000084FE6318F700032784FC832784FD6300AA
:101A1000F702232404FE832744FE85072322F4FED5
:101A2000032744FE8327C4FDE34BF7FA11A001000E
:101A3000832784FE81CF832784FE9C439C57832584
:101A400084FC032584FE82972326A4FE8327C4FEFC
:101A50003E85F250625421618280797106D622D48B
:101A60000018232EA4FC232CB4FC232AC4FCFD570D
:101A70002326F4FE8327C4FD2324F4FE0325C4FD9E
:101A8000EFF01FA62322A4FE032784FD89476308E5
:101A9000F704032784FD894763C8E700032784FD13
:101AA0008547630EF700E9A8032784FD8D47630C83
:101AB000F704032784FD91476308F708D1A0832723
:101AC00044FDC5CB032584FEF934AA872E8803275D
:101AD00044FD1CC323220701232604FE59A88327A3
:101AE00044FDD1CB832744FD9C432320F4FE832770
:101AF00004FE8A073E87832744FEBA9723A0070087
:101B0000232604FE8DA8832744FDA5CB832744FD0F
:101B10009C432320F4FE832704FE8A073E87832705
:101B200044FEBA973E8785471CC30F008004832775
:101B300004FE8A073E87832744FEBA979C432326E8
:101B4000F4FE232604FE15A8232604FE832744FD65
:101B50009DC7832744FD9C432320F4FE832704FE76
:101B60008A073E87832744FEBA979C432326F4FEC8
:101B700039A0010031A0010021A0010011A0010045
:101B80008327C4FE3E85B25022544561828079711C
:101B900006D622D40018232EA4FC232CB4FCEF304C
:101BA000B016AA872326F4FE9307C4FE3E86894515
:101BB0000325C4FD5D35AA873E85B2502254456198
:101BC0008280797106D622D40018232EA4FC232CFF
:101BD000B4FCEF307013AA872326F4FE9307C4FEEB
:101BE0003E868D450325C4FD8D3DAA873E85B250B6
:101BF000225445618280011122CE00102326A4FECA
:101C00000327C4FE938781816314F700814711A0E5
:101C1000FD573E85724405618280011122CE00107D
:101C20002326A4FE0327C4FE938781816317F70050
:101C3000B727F4009387074011A081473E8572447F
:101C400005618280011122CE00102326A4FE032705
:101C5000C4FE938781816317F700B70700809387DD
:101C6000070911A081473E857244056182800111F8
:101C700022CE00102326A4FE8327C4FE634AF00070
:101C80000327C4FE0A079387C180BA979C4311A01B
:101C900081473E85724405618280011122CE001089
:101CA000F32740F12326F4FE8327C4FE3E857244C9
:101CB00005618280011122CE0010A147F3A70730F1
:101CC0002326F4FE0100724405618280011122CEB8
:101CD0000010A147F3B707302326F4FE0100724439
:101CE00005618280011122CE0010A147F3A7473081
:101CF0002326F4FE0100724405618280011122CE88
:101D00000010A147F3B747302326F4FE01007244C8
:101D100005618280011122CE001093070008F3A70D
:101D200047302326F4FE01007244056182800111D0
:101D300022CE001093070008F3B747302326F4FEA5
:101D40000100724405618280011122CE0010856776
:101D500093870780F3A747302326F4FE01007244DF
:101D600005618280011122CE00108567938707806C
:101D7000F3B747302326F4FE0100724405618280E8
:101D8000797122D60018232EA4FC8327C4FD0547B1
:101D9000B317F7002326F4FE8327C4FEF3A74730CA
:101DA0002324F4FE0100325445618280797122D6E9
:101DB0000018232EA4FC8327C4FD0547B317F700A2
:101DC0002326F4FE8327C4FEF3B747302324F4FE12
:101DD0000100325445618280011106CE22CC0010F0
:101DE0002326A4FE2324B4FE13054006EF306073BF
:101DF000011106CE22CC00102326A4FE2324B4FE1B
:101E00001305800CEF30E0715D7186C696C49AC2EE
:101E10009EC022DE2ADC2EDA32D836D63AD43ED222
:101E200042D046CE72CC76CA7AC87EC680081305E8
:101E3000C012EF30006F1D7186CE96CC9ACA9EC834
:101E4000A2C6AAC4AEC2B2C036DE3ADC3EDA42D87E
:101E500046D672D476D27AD07ECE80103D3D2A8787
:101E60000A079387C180BA979C432326F4FA8327F5
:101E7000C4FA85C70325C4FAF1332324A4FA8327BF
:101E800084FA83A7070E2322F4FA832784FA83A710
:101E9000870D832544FA0D4582970100F640E642FE
:101EA0005643C6433644264596450646F256625783
:101EB000D2574258B258225E925E025FF24F2561BD
:101EC00073002030797106D622D40018232EA4FC8A
:101ED000232CB4FCD9332A870A079387C180BA9789
:101EE0009C432326F4FEF32720342324F4FE832787
:101EF000C4FE95C70325C4FEB1332322A4FE832765
:101F000084FE93F7F73F032744FE9387070E8A0763
:101F1000BA979C478325C4FD0325C4FE8297010020
:101F2000B2502254456182801D7186CE96CC9ACAE9
:101F30009EC8A2C6AAC4AEC2B2C036DE3ADC3EDA41
:101F400042D846D672D476D27AD07ECE8010B133C3
:101F50002A870A079387C180BA979C432326F4FAFD
:101F60008327C4FA85C70325C4FAE9392324A4FAD0
:101F7000832784FA83A707142322F4FA832784FA99
:101F800083A78713832544FA1D4582970100F640F5
:101F9000E6425643C6433644264596450646F25623
:101FA0006257D2574258B258225E925E025FF24F99
:101FB000256173002030797106D622D40018232EB3
:101FC000A4FC232CB4FCD139AA873E854D312326AD
:101FD000A4FE0325C4FEEF1020192320A4FE232213
:101FE000B4FE832704FE032844FEA9450146B386B8
:101FF000B70036853335F5003307C800B307E50071
:102000003E87B6873A88BE8542860325C4FEEF1018
:10201000001C0100B2502254456182800000000083
:1020200000000000000000000000000000000000B0
:1020300000000000000000000000000000000000A0
:102040000000000000000000000000000000000090
:102050000000000000000000000000000000000080
:102060000000000000000000000000000000000070
:102070000000000000000000000000000000000060
:10208000197186DE96DC9ADA9ED8A2D6AAD4AED290
:10209000B2D0B6CEBACCBECAC2C8C6C6F2C4F6C2A8
:1020A000FAC07EDE0001D53E2A870A079387C180E9
:1020B000BA979C432326F4FAF32720342324F4FA16
:1020C000F32710342322F4FAF32730342320F4FAD0
:1020D000F3275030232EF4F88327C4FAE1C70325F1
:1020E000C4FA8D36232CA4F8832784FA93F7F73F9C
:1020F000232AF4F8832784FA63D80708032744F9CE
:10210000AD4763D7E7008327C4F993F7F7039DEF43
:10211000832684F9032744F9BA878607BA978E077E
:10212000B69783A787092326F4F8832684F9032723
:1021300044F9BA878607BA978E07B69783A7070927
:102140008325C4F8032544F98297A9A88327C4F9F5
:1021500013F7F70389476317F704F3277030232831
:10216000F4F8832784F983A7C70D2326F4F883277F
:1021700004F99C432324F4F8832784F88325C4F8C6
:10218000032544F9829739A8032784F9832744F962
:102190009387070E8A07BA979C47832544F903253E
:1021A000C4FA8297F650E6525653C6533654265513
:1021B00096550656F6466647D6474648B648264ED2
:1021C000964E064FF25F0961730020300000000058
:1021D00000000000000000000000000000000000FF
:1021E00000000000000000000000000000000000EF
:1021F00000001D7186CE96CC9ACA9EC8A2C6AAC4FB
:10220000AEC2B2C036DE3ADC3EDA42D846D672D42E
:1022100076D27AD07ECE8010EFF03FA82A870A07C8
:102220009387C180BA979C432326F4FA8327C4FA84
:102230008DC70325C4FAEFF0FFA02324A4FA832757
:1022400084FA83A787212322F4FA832784FA83A7B9
:102250000721832544FA414582970100F640E64272
:102260005643C6433644264596450646F2566257BF
:10227000D2574258B258225E925E025FF24F2561F9
:10228000730020301D7186CE96CC9ACA9EC8A2C615
:10229000AAC4AEC2B2C036DE3ADC3EDA42D846D676
:1022A00072D476D27AD07ECE8010EFF01F9F2A872C
:1022B0000A079387C180BA979C432326F4FA8327A1
:1022C000C4FA8DC70325C4FAEFF0DF972324A4FADC
:1022D000832784FA83A707232322F4FA832784FA27
:1022E00083A78722832544FA454582970100F6405B
:1022F000E6425643C6433644264596450646F256C0
:102300006257D2574258B258225E925E025FF24F35
:102310002561730020301D7186CE96CC9ACA9EC866
:10232000A2C6AAC4AEC2B2C036DE3ADC3EDA42D899
:1023300046D672D476D27AD07ECE8010EFF0FF955A
:102340002A870A079387C180BA979C432326F4FA09
:102350008327C4FA8DC70325C4FAEFF0BF8E232468
:10236000A4FA832784FA83A787242322F4FA8327F5
:1023700084FA83A70724832544FA494582970100FC
:10238000F640E6425643C643364426459645064641
:10239000F2566257D2574258B258225E925E025F9E
:1023A000F24F2561730020301D7186CE96CC9ACAFB
:1023B0009EC8A2C6AAC4AEC2B2C036DE3ADC3EDABD
:1023C00042D846D672D476D27AD07ECE8010EFF044
:1023D000DF8C2A870A079387C180BA979C432326FC
:1023E000F4FA8327C4FA8DC70325C4FAEFF09F855A
:1023F0002324A4FA832784FA83A707262322F4FA46
:10240000832784FA83A78725832544FA4D4582973D
:102410000100F640E6425643C643364426459645FB
:102420000646F2566257D2574258B258225E925E22
:10243000025FF24F2561730020301D7186CE96CC6D
:102440009ACA9EC8A2C6AAC4AEC2B2C036DE3ADCE0
:102450003EDA42D846D672D476D27AD07ECE80107A
:10246000EFF0BF832A870A079387C180BA979C43FE
:102470002326F4FA8327C4FA8DC70325C4FAEFF0A4
:102480006FFC2324A4FA832784FA83A787272322B7
:10249000F4FA832784FA83A70727832544FA514552
:1024A00082970100F640E6425643C643364426452D
:1024B00096450646F2566257D2574258B258225EA7
:1024C000925E025FF24F2561730020301D7186CE4F
:1024D00096CC9ACA9EC8A2C6AAC4AEC2B2C036DE04
:1024E0003ADC3EDA42D846D672D476D27AD07ECE64
:1024F0008010EFF08FFA2A870A079387C180BA9776
:102500009C432326F4FA8327C4FA8DC70325C4FA13
:10251000EFF04FF32324A4FA832784FA83A7072933
:102520002322F4FA832784FA83A78728832544FA91
:10253000554582970100F640E6425643C64336446D
:10254000264596450646F2566257D2574258B2582B
:10255000225E925E025FF24F2561730020301D7192
:1025600086CE96CC9ACA9EC8A2C6AAC4AEC2B2C033
:1025700036DE3ADC3EDA42D846D672D476D27AD00B
:102580007ECE8010EFF06FF12A870A079387C18013
:10259000BA979C432326F4FA8327C4FA8DC70325F0
:1025A000C4FAEFF02FEA2324A4FA832784FA83A73E
:1025B000872A2322F4FA832784FA83A7072A83250C
:1025C00044FA594582970100F640E6425643C64315
:1025D0003644264596450646F2566257D25742582B
:1025E000B258225E925E025FF24F25617300203086
:1025F0001D7186CE96CC9ACA9EC8A2C6AAC4AEC287
:10260000B2C036DE3ADC3EDA42D846D672D476D252
:102610007AD07ECE8010EFF04FE82A870A079387A2
:10262000C180BA979C432326F4FA8327C4FA8DC746
:102630000325C4FAEFF00FE12324A4FA832784FAD8
:1026400083A7072C2322F4FA832784FA83A7872BF6
:10265000832544FA5D4582970100F640E6425643E1
:10266000C6433644264596450646F2566257D2572B
:102670004258B258225E925E025FF24F25617300AB
:1026800020301D7186CE96CC9ACA9EC8A2C6AAC416
:10269000AEC2B2C036DE3ADC3EDA42D846D672D49A
:1026A00076D27AD07ECE8010EFF02FDF2A870A070D
:1026B0009387C180BA979C432326F4FA8327C4FAF0
:1026C0008DC70325C4FAEFF0EFD72324A4FA83279C
:1026D00084FA83A7872D2322F4FA832784FA83A719
:1026E000072D832544FA614582970100F640E642B2
:1026F0005643C6433644264596450646F25662572B
:10270000D2574258B258225E925E025FF24F256164
:10271000730020301D7186CE96CC9ACA9EC8A2C680
:10272000AAC4AEC2B2C036DE3ADC3EDA42D846D6E1
:1027300072D476D27AD07ECE8010EFF00FD62A8770
:102740000A079387C180BA979C432326F4FA83270C
:10275000C4FA8DC70325C4FAEFF0CFCE2324A4FA20
:10276000832784FA83A7072F2322F4FA832784FA86
:1027700083A7872E832544FA654582970100F6409A
:10278000E6425643C6433644264596450646F2562B
:102790006257D2574258B258225E925E025FF24FA1
:1027A0002561730020301D7186CE96CC9ACA9EC8D2
:1027B000A2C6AAC4AEC2B2C036DE3ADC3EDA42D805
:1027C00046D672D476D27AD07ECE8010EFF0EFCC9F
:1027D0002A870A079387C180BA979C432326F4FA75
:1027E0008327C4FA8DC70325C4FAEFF0AFC52324AD
:1027F000A4FA832784FA83A787302322F4FA832755
:1028000084FA83A70730832544FA6945829701003B
:10281000F640E6425643C6433644264596450646AC
:10282000F2566257D2574258B258225E925E025F09
:10283000F24F2561730020301D7186CE96CC9ACA66
:102840009EC8A2C6AAC4AEC2B2C036DE3ADC3EDA28
:1028500042D846D672D476D27AD07ECE8010EFF0AF
:10286000CFC32A870A079387C180BA979C43232640
:10287000F4FA8327C4FA8DC70325C4FAEFF08FBC9E
:102880002324A4FA832784FA83A707322322F4FAA5
:10289000832784FA83A78731832544FA6D4582977D
:1028A0000100F640E6425643C64336442645964567
:1028B0000646F2566257D2574258B258225E925E8E
:1028C000025FF24F2561730020301D7186CE96CCD9
:1028D0009ACA9EC8A2C6AAC4AEC2B2C036DE3ADC4C
:1028E0003EDA42D846D672D476D27AD07ECE8010E6
:1028F000EFF0AFBA2A870A079387C180BA979C4343
:102900002326F4FA8327C4FA8DC70325C4FAEFF00F
:102910006FB32324A4FA832784FA83A7873323225F
:10292000F4FA832784FA83A70733832544FA714591
:1029300082970100F640E6425643C6433644264598
:1029400096450646F2566257D2574258B258225E12
:10295000925E025FF24F2561730020301D7186CEBA
:1029600096CC9ACA9EC8A2C6AAC4AEC2B2C036DE6F
:102970003ADC3EDA42D846D672D476D27AD07ECECF
:102980008010EFF08FB12A870A079387C180BA972A
:102990009C432326F4FA8327C4FA8DC70325C4FA7F
:1029A000EFF04FAA2324A4FA832784FA83A70735DC
:1029B0002322F4FA832784FA83A78734832544FAF1
:1029C000754582970100F640E6425643C6433644B9
:1029D000264596450646F2566257D2574258B25897
:1029E000225E925E025FF24F2561730020301D71FE
:1029F00086CE96CC9ACA9EC8A2C6AAC4AEC2B2C09F
:102A000036DE3ADC3EDA42D846D672D476D27AD076
:102A10007ECE8010EFF06FA82A870A079387C180C7
:102A2000BA979C432326F4FA8327C4FA8DC703255B
:102A3000C4FAEFF02FA12324A4FA832784FA83A7F2
:102A400087362322F4FA832784FA83A7073683255F
:102A500044FA794582970100F640E6425643C64360
:102A60003644264596450646F2566257D257425896
:102A7000B258225E925E025FF24F256173002030F1
:102A80001D7186CE96CC9ACA9EC8A2C6AAC4AEC2F2
:102A9000B2C036DE3ADC3EDA42D846D672D476D2BE
:102AA0007AD07ECE8010EFF04F9F2A870A07938757
:102AB000C180BA979C432326F4FA8327C4FA8DC7B2
:102AC0000325C4FAEFF00F982324A4FA832784FA8D
:102AD00083A707382322F4FA832784FA83A787374A
:102AE000832544FA7D4582970100F640E64256432D
:102AF000C6433644264596450646F2566257D25797
:102B00004258B258225E925E025FF24F2561730016
:102B10002030011122CE0010F32750302326F4FE7E
:102B20008327C4FE93F7F7032326F4FE0327C4FE8E
:102B30008947630DF7000327C4FE8D47630AF7003A
:102B40000327C4FE85476307F70039A08D4731A0EE
:102B5000914721A0854711A081473E8572440561B8
:102B60008280797122D60018232EA4FC232CB4FC79
:102B7000F32750302326F4FE8327C4FE93F707FC87
:102B80002326F4FE832784FD2324F4FE0327C4FDBB
:102B9000914763E0E7068327C4FD13972700B757E3
:102BA00001209387477FBA979C438287832784FEBF
:102BB000739077308327C4FE93E7270073905730D4
:102BC0000DA8832784FE739077308327C4FE93E794
:102BD00037007390573031A8832784FE93E717009E
:102BE0007390573039A0832784FEF19B7390573040
:102BF00001000100325445618280011122CE001093
:102C00002326A4FE8327C4FEF5177147636DF700E2
:102C100013972700B767012093878780BA979C4353
:102C20008287854719A0010081473E85724405616E
:102C30008280797106D622D40018232EA4FC232C7E
:102C4000B4FC232AC4FC232604FE8327C4FD99E395
:102C5000FD5749A8032784FDFD4763E0E708832764
:102C600084FD13972700B76701209387C787BA971A
:102C70009C438287832744FD81C7EFF0AF838DA0FB
:102C8000EFF0CF84B1A8832744FD81C7EFF08F8593
:102C900081A8EFF0AF86A9A0832744FD81C7EFF09C
:102CA0006F873DA8EFF0AF8825A8832744FD81C733
:102CB000EFF08F8935A0EFF0EF8A1DA0832744FD48
:102CC00099C7832784FD3E85EFF08F8B11A883275A
:102CD00084FD3E85EFF08F8D21A0FD572326F4FE65
:102CE0008327C4FE3E85B2502254456182807971AB
:102CF00022D60018232EA4FC232CB4FC232AC4FCC7
:102D00008327C4FD2326F4FE032784FDAD4763C259
:102D1000E702832744FD91CF0327C4FE832784FD68
:102D20009387070E8A07BA97032744FD98C7814700
:102D300011A0FD573E85325445618280397106DE0F
:102D400022DC80002326A4FC8327C4FC2322F4FE7B
:102D5000832744FEDC43639D0710FD5773B0473063
:102D6000FD5773B04734F32710302320F4FE0327B8
:102D700004FE8967F98F99E7032704FEB70704006B
:102D8000F98F99C7FD5773B03730FD5773B02730AF
:102D9000032704FEB7070400F98F81C7FD5773B0FE
:102DA0000718232604FEB9A0832644FE0327C4FE89
:102DB000BA878607BA978E07B69723A8070883268F
:102DC00044FE0327C4FEBA878607BA978E07B697D4
:102DD00023AA0708832644FE0327C4FEBA87860772
:102DE000BA978E07B69723AC07088327C4FE8507DA
:102DF0002326F4FE0327C4FEFD47E3D7E7FA232486
:102E000004FE1DA0032744FE832784FE9387070E3C
:102E10008A07BA9737270120130787DD98C78327CA
:102E200084FE85072324F4FE032784FEAD47E3DBFD
:102E3000E7FCB72701209385070801451D33F327D9
:102E40001030232EF4FC0327C4FDC167938787024B
:102E5000F98F99CBF3270030232EF4FC0327C4FD10
:102E60008967D98F73900730832744FE0547D8C3FD
:102E70000100F250625421618280797106D622D419
:102E80000018232EA4FC232CB4FC232AC4FC2328E2
:102E9000D4FC232604FE8327C4FD2324F4FE03254B
:102EA00084FDA13BAA8799E3D55711AA832744FD46
:102EB00085CF832684FE032784FDBA878607BA97C9
:102EC0008E07B697032744FD23A8E708832684FED0
:102ED000032784FDBA878607BA978E07B69703271C
:102EE00004FD23ACE708D1A8832784FDF5177147BB
:102EF0006362F70C13972700B76701209387C78F8A
:102F0000BA979C438287832684FE032784FDBA8771
:102F10008607BA978E07B69737270120130747EC25
:102F200023A8E708832684FE032784FDBA87860743
:102F3000BA978E07B697032704FD23AAE708B5A81A
:102F4000832684FE032784FDBA878607BA978E07F7
:102F5000B69737270120130767FB23A8E7088326C6
:102F600084FE032784FDBA878607BA978E07B69733
:102F7000032704FD23AAE70889A0832684FE0327EC
:102F800084FDBA878607BA978E07B6973727012040
:102F9000130707DF23A8E708832684FE032784FDA1
:102FA000BA878607BA978E07B697032704FD23AA28
:102FB000E70821A0D1572326F4FE8327C4FE3E85CF
:102FC000B250225445618280011106CE22CC0010FD
:102FD0002326A4FE2324B4FE832784FE0546BE8553
:102FE0000325C4FEB931AA873E85F24062440561DB
:102FF0008280011106CE22CC00102326A4FE2324B9
:10300000B4FE832784FE0146BE850325C4FE153128
:10301000AA873E85F240624405618280011106CE96
:1030200022CC00102326A4FEEFF0BFAEAA873E8577
:10303000F240624405618280797106D622D400187C
:10304000232EA4FC232CB4FC8327C4FD2326F4FEEA
:10305000832784FD99EBB727012093850708032573
:1030600084FDEFF01FB081470DA0032784FD854745
:10307000631CF700B757012093850758032584FD8B
:10308000EFF03FAE814711A0FD573E85B25022546C
:1030900045618280011122CE00102326A4FE232444
:1030A000B4FE2322C4FE81473E85724405618280BE
:1030B000397122DE80002326A4FC014381432324AE
:1030C00064FE232674FE732500B82322A4FE732514
:1030D00000B02320A4FE732500B8232EA4FC83286F
:1030E00044FE0325C4FD6395A802032544FEAA857A
:1030F0000146139805008147032604FEB286014766
:1031000033E6D7002324C4FEB367E8002326F4FE89
:10311000832784FE0328C4FE3E85C2857254216144
:103120008280797106D622D44AD24ED00018232E3E
:10313000A4FC8327C4FD81E70149814921A8032517
:10314000C4FDEFE09FAD2326A4FE8327C4FE3E8985
:10315000FD87BE89CA874E883E85C285B2502254FB
:103160001259825945618280797106D622D400189D
:10317000232EA4FC814701482320F4FE232204FFD0
:103180000325C4FDEFE01FAC2326A4FE8327C4FE65
:103190008DC78327C4FE83A7C7132324F4FE832788
:1031A00084FE81CF832784FE9C43F843930704FE6B
:1031B0003E868545032584FE0297832704FE032867
:1031C00044FE3E85C285B2502254456182807971A9
:1031D00006D622D426D20018232EA4FC2328B4FC21
:1031E000232AC4FCFD572326F4FE0325C4FDEFE08B
:1031F0007FA52324A4FE832784FE8DCF832784FE0E
:1032000083A7C7132322F4FE832744FE85C78327A1
:1032100044FE9C43A4470325C4FDEFE0DF9DAA873D
:10322000032604FD832644FDBE85032544FE8294C7
:103230002326A4FE8327C4FE3E85B2502254925416
:1032400045618280011122CE00102326A4FE9387BF
:1032500001813E85724405618280011122CE0010F9
:103260002326A4FE9D473E8572440561828001119C
:1032700022CE00102326A4FE938701813E8572444E
:1032800005618280011122CE00102326A4FE8D4705
:103290003E85724405618280797106D622D4001879
:1032A000232EA4FC232CB4FCFD572326F4FE032577
:1032B000C4FDEFE03F992324A4FE832784FE9DC72D
:1032C000832784FE83A7C70D2322F4FE832744FEB1
:1032D00091CF832744FE9C43F843930784FD3E86A9
:1032E0008D45032544FE02972326A4FE8327C4FEB2
:1032F0003E85B250225445618280797106D622D42F
:103300000018232EA4FC232CB4FCFD572326F4FE26
:103310000325C4FDEFE01F932324A4FE832784FE2E
:103320009DC7832784FE83A7C70D2322F4FE83272E
:1033300044FE91CF832744FE9C43F843930784FDCA
:103340003E868945032544FE02972326A4FE832753
:10335000C4FE3E85B250225445618280797106D602
:1033600022D40018232EA4FC232CB4FC232604FE14
:103370000325C4FDEFE01F8D2324A4FE832784FED4
:103380009DC7832784FE83A7C70D2322F4FE8327CE
:1033900044FE91CF832744FE9C43F843930784FD6A
:1033A0003E869145032544FE02972326A4FE8327EB
:1033B000C4FE3E85B250225445618280011106CE82
:1033C00022CC00102326A4FE0325C4FEEFE09F8735
:1033D000AA873E85F240624405618280797106D6F3
:1033E00022D40018232EA4FC232CB4FC232AC4FCD2
:1033F0000325C4FDEFE01F852326A4FE8327C4FE1A
:1034000099CB032644FD832584FD0325C4FEEFF0FC
:103410001F8EAA8711A0FD573E85B25022544561E8
:103420008280011122CE00102326A4FE2324B4FEA4
:10343000832784FE83D7070013F737008D47631473
:10344000F700914711A089473E857244056182804B
:10345000797122D60018232EA4FCF32710342326DA
:10346000F4FE8327C4FE3E853254456182800111FB
:1034700022CE00102326A4FE2324B4FE832784FE3C
:103480007390173481473E85724405618280011133
:1034900022CE00102326A4FE0327C4FEB707008017
:1034A000938787446315F700B707000C11A0814785
:1034B0003E85724405618280011122CE00102326D0
:1034C000A4FE0327C4FEB7070080938787446315D3
:1034D000F7009307500311A081473E8572440561B0
:1034E0008280011122CE00102326A4FE0327C4FEF1
:1034F000B7070080938787446314F7009D4711A0A6
:1035000081473E85724405618280011122CE001000
:103510002326A4FE2324B4FE832784FE91E7B70765
:1035200000809387070911A081473E857244056199
:103530008280011122CE00102326A4FE2324B4FE93
:10354000832784FE99E3AD4711A081473E857244ED
:1035500005618280797106D622D40018232EA4FC3E
:103560000325C4FD2D372326A4FE0327C4FEB70779
:1035700020009107BA979C433E85B2502254456182
:103580008280797106D622D40018232EA4FC232C25
:10359000B4FC0325C4FDE53D2326A4FE0327C4FE99
:1035A000B70720009107BA973E87832784FD1CC385
:1035B0000100B250225445618280797106D622D42E
:1035C0000018232EA4FC232CB4FC0325C4FDC13514
:1035D0002326A4FE0327C4FEB7072000BA973E8720
:1035E000832784FD1CC381473E85B2502254456128
:1035F0008280797106D622D40018232EA4FC0325DC
:10360000C4FD71352326A4FE0327C4FEB70720009E
:10361000BA979C433E85B2502254456182807971AD
:1036200006D622D40018232EA4FC232CB4FC232A73
:10363000C4FC0325C4FDA13D2326A4FE0325C4FD2F
:103640004D35AA872324F4FE832784FE85C70327EC
:1036500044FD832784FE637FF700832784FD8A0768
:103660003E878327C4FEBA973E87832744FD1CC349
:10367000814711A0FD573E85B2502254456182809A
:10368000797106D622D40018232EA4FC232CB4FC76
:103690000325C4FDED3B2326A4FE832784FD8A0772
:1036A0003E878327C4FEBA979C433E85B25022547E
:1036B00045618280797106D622D40018232EA4FC9D
:1036C000232CB4FC232AC4FC0325C4FDC9332326C0
:1036D000A4FE832784FD95878A073E878327C4FE3F
:1036E0003E978967BA979C432324F4FE832744FDC1
:1036F00081CF832784FDFD8B0547B317F7003E87F5
:10370000832784FED98F29A8832784FDFD8B054755
:10371000B317F70093C7F7FF3E87832784FEF98F1F
:10372000032784FD15870A07BA860327C4FEBA96C5
:10373000096736971CC30100B2502254456182804C
:10374000011106CE22CC00102326A4FE2324B4FEB1
:103750001305C012EF10F05C797106D622D4001860
:10376000232EA4FC232CB4FC832784FD2326F4FE03
:103770000325C4FEC5332324A4FE0325C4FE2D3B2C
:10378000AA872322F4FE032784FE832744FE637264
:10379000F7040327C4FE832784FE8A07BA979C4751
:1037A0008DCB0327C4FE832784FE8A07BA9703A81C
:1037B0008700032684FE8326C4FE032784FEBA877F
:1037C0008607BA978E07B69783A7070FBE853285FF
:1037D0000298832584FE0325C4FE65330100B250A0
:1037E000225445618280397106DE22DC8000232666
:1037F000A4FC8327C4FC2322F4FE832744FEDC437D
:10380000639C0710232604FE01A20325C4FC6D312E
:103810002320A4FE8325C4FE0325C4FCFD31232EF2
:10382000A4FC8325C4FE0325C4FC2133232CA4FC63
:103830008327C4FD9C439C430325C4FD8297232416
:1038400004FE85A00146832584FE032544FE9D35A4
:103850000146832584FE0325C4FCD133032744FE9F
:10386000832784FE8A07BA9723A40700832644FE91
:10387000032784FEBA878607BA978E07B69723A6D2
:10388000070E832644FE032784FEBA878607BA976D
:103890008E07B69723A8070E832784FE8507232467
:1038A000F4FE032784FE832704FEE34DF7F88145E9
:1038B0000325C4FC19338327C4FD9C43DC4F8326B6
:1038C00044FE0146832584FD0325C4FD829783279A
:1038D000C4FD9C43D84F832644FEB737012013868E
:1038E0008775832584FD0325C4FD02978327C4FDC6
:1038F0009C43DC53832584FD0325C4FD82978327E5
:10390000C4FE85072326F4FE8327C4FEE35FF0EEA2
:10391000832744FE0547D8C30100F2506254216159
:103920008280797106D622D40018232EA4FC232C81
:10393000B4FC232AC4FC2328D4FC8327C4FD2326FB
:10394000F4FE0325C4FDEFF03FB72A87832784FDEB
:1039500063C4E700FD5749A0832744FD95CF09467E
:10396000832584FD0325C4FD5D390327C4FE832719
:1039700084FD8A07BA97032744FD98C78326C4FEAF
:10398000032784FDBA878607BA978E07B697032761
:1039900004FD23A8E70E81A00546832584FD0325A9
:1039A000C4FDEFF0DFC70327C4FE832784FD8A0729
:1039B000BA97373701201307077498C78326C4FEC8
:1039C000032784FDBA878607BA978E07B697032721
:1039D00004FD23A6E70E81473E85B250225445617F
:1039E0008280797106D622D40018232EA4FC232CC1
:1039F000B4FC8327C4FD2326F4FE0325C4FDEFF0A9
:103A0000BFAB2A87832784FD63C4E700FD5709A85D
:103A10000546832584FD0325C4FEEFF0BFC9814719
:103A20003E85B250225445618280797106D622D4F7
:103A30000018232EA4FC232CB4FC8327C4FD2326CA
:103A4000F4FE0325C4FDEFF03FA72A87832784FDFA
:103A500063C4E700FD5709A80146832584FD0325BB
:103A6000C4FEEFF03FC581473E85B2502254456108
:103A70008280011122CE00102326A4FEB707008009
:103A80009387C7063E85724405618280011122CE6C
:103A900000102326A4FE938701823E8572440561AF
:103AA0008280011122CE00102326A4FE81473E858C
:103AB000724405618280411122C6000893874183C8
:103AC0003E85324441018280397106DE22DC80006D
:103AD0002326A4FC0325C4FC693F2326A4FE03255A
:103AE000C4FCC1372324A4FE0325C4FC453723228C
:103AF000A4FED1372320A4FE832704FE9C43832504
:103B000084FE032544FE8297232EA4FC0327C4FDD4
:103B1000B7070040F98F99E3FD5725A08327C4FD1F
:103B200063C40700FD5731A80325C4FEEF10D00B76
:103B3000AA873E878327C4FD93F7F7038507B3570A
:103B4000F7023E85F250625421618280011106CE57
:103B500022CC00102326A4FE2324B4FE0325C4FE99
:103B6000A537AA873E85F240624405618280011133
:103B700022CE00102326A4FEB707008093870706F5
:103B80003E85724405618280011122CE00102326F9
:103B9000A4FE938701823E857244056182800111F3
:103BA00022CE00102326A4FE91473E857244056173
:103BB0008280411122C60008938741833E853244AA
:103BC00041018280397106DE22DC80002326A4FCBC
:103BD0000325C4FC693F2326A4FE0325C4FCC1378A
:103BE0002324A4FE0325C4FC45372322A4FED13799
:103BF0002320A4FE832704FE9C43832584FE032503
:103C000044FE8297232EA4FC0327C4FDB70700407F
:103C1000F98F99E3FD5721A88327C4FD63C40700EA
:103C2000FD5731A00325C4FEEF10007CAA873E8516
:103C3000F250625421618280011106CE22CC001024
:103C40002326A4FE2324B4FE0325C4FEA53FAA8791
:103C50003E85F240624405618280011122CE00104F
:103C60002326A4FEB7170080938707A63E857244DB
:103C700005618280011122CE00102326A4FEB71711
:103C800000809387C7A63E8572440561828001113A
:103C900022CE00102326A4FE938701823E85724423
:103CA00005618280011122CE00102326A4FEB147B7
:103CB0003E85724405618280411122C600089387C7
:103CC00001823E85324441018280411122C60008B2
:103CD000A1473E85324441018280411122C600083D
:103CE000B727F400938707403E8532444101828024
:103CF000411122C60008B78700103E8532444101B9
:103D00008280411122C60008938741833E85324458
:103D100041018280011122CE00102326A4FE23241B
:103D2000B4FE832784FE9C470327C4FE6369F70023
:103D3000832784FEDC470327C4FE63F4E700FD57B6
:103D400029A8832784FE98438327C4FE3307F702FC
:103D5000832784FEDC43B357F7023E857244056136
:103D60008280011106CE22CC0010853F2326A4FEBE
:103D70008327C4FE91C7B7170080138587A731201A
:103D80000100F240624405618280397106DE22DC66
:103D900080002326A4FC8327C4FC3E85E13D232626
:103DA000A4FE253F2324A4FE0D372322A4FE893739
:103DB0002320A4FE032704FE832744FEBA97232E64
:103DC000F4FC8327C4FCDC433E85EF10A058832716
:103DD000C4FD9843C167F98F91EB8327C4FD9843D5
:103DE000C177FD177D8F8327C4FD98C38327C4FE49
:103DF00091CB8327C4FD9843B70702005D8F8327CB
:103E0000C4FD98C38327C4FC9C43D8438327C4FCC8
:103E1000832584FE3E8502978327C4FC9C473E850C
:103E2000EF1040530100F2506254216182801D71F5
:103E300086CEA2CC80102326A4FA0325C4FA1D3D09
:103E40002326A4FE0325C4FA093D2324A4FE03254A
:103E5000C4FAA53D2322A4FE0325C4FAB13D2320C4
:103E6000A4FE0325C4FA3D3D232EA4FC0325C4FA79
:103E7000393D232CA4FC7135232AA4FC832744FD5F
:103E80009C43832544FE032504FE82972328A4FC3B
:103E9000832744FD9C438325C4FD032584FD82972D
:103EA0002326A4FC032704FDC1677D8FC1676378C7
:103EB000F700032584FEEF102053AA87E1A803270B
:103EC00004FDB70702007D8FB70702006365F700A6
:103ED0008327C4FE19A0832784FE3E85EF10C050BF
:103EE0002324A4FC032704FDB70704007D8FB70734
:103EF00004006365F700832784FC69A8832704FD19
:103F00009D8B85072322F4FC832704FD93F7073F4D
:103F10009183850786072320F4FC032704FD85672A
:103F2000938707C07D8F9307F03F63E4E700FD5759
:103F300095A0032704FD8567938707C0F98FA983A0
:103F40000547B317F700232EF4FA032784FC8327D1
:103F500044FC3347F702832704FC3307F702832727
:103F6000C4FBB347F702232CF4FA8327C4FC13F7EE
:103F700007109307F00F63F5E700832784FB19A868
:103F8000032784FB8327C4FC93F7F7038507860781
:103F9000B357F7023E85F640664425618280397149
:103FA00006DE22DC80002326A4FC2324B4FCFD577B
:103FB0002326F4FEB707008093C7F7FF2324F4FEFF
:103FC000930730042322F4FEB5A08326C4FC832784
:103FD00044FE13975700B7670120938787A4BA97C9
:103FE000BE853685EFF01FD32320A4FE032704FEF1
:103FF000FD57630CF702032704FE832784FC1D8F03
:104000009357F7413D8FB307F740232EF4FC032766
:10401000C4FD832784FE635AF700832744FE2326CA
:10402000F4FE8327C4FD2324F4FE832744FEFD17FA
:104030002322F4FE832744FEE3D907F88327C4FE36
:104040003E85F250625421618280011122CE00101F
:104050002326A4FE2324B4FE2322C4FE8327C4FE09
:104060009C4313F787FF8327C4FE98C38327C4FEAE
:104070009843832744FE9C4B9D8B5D8F8327C4FE12
:1040800098C38327C4FE9C4313F7F7C08327C4FE5D
:1040900098C38327C4FE9843832744FEDC4B9207D2
:1040A00093F7073F5D8F8327C4FE98C38327C4FE21
:1040B0009843FD779387F73F7D8F8327C4FE98C38E
:1040C0008327C4FE9843832744FE9C4F9396A70002
:1040D0008567938707C0F58F5D8F8327C4FE98C3DC
:1040E000832744FEDC4F63DB0702832784FE9C4367
:1040F00013E70710832784FE98C3832784FE9C431D
:1041000013F707FC832784FE98C3832784FE9C4310
:1041100013E71700832784FE98C32DA8832784FE06
:104120009C4313F7F7EF832784FE98C3832784FE0D
:104130009C4313F707FC832784FE98C3832784FEE0
:104140009843832744FEDC4F93F7F7035D8F832763
:1041500084FE98C38327C4FE9843B707FCFFFD176E
:104160007D8F8327C4FE98C301008327C4FE9C4330
:10417000E3DD07FE01007244056182805D7186C641
:10418000A2C48008232EA4FA232CB4FA0325C4FB6E
:10419000EFF05FAE2326A4FE0325C4FBEFF0FFABD8
:1041A0002324A4FE0325C4FBEFF03FB22322A4FE88
:1041B0000325C4FBEFF01FAF2320A4FEEFF05FB395
:1041C000232EA4FC0327C4FD832744FEBA97232C87
:1041D000F4FC0327C4FD832704FEBA97232AF4FCCA
:1041E000832784FD9843C167F98F91CB832784FD92
:1041F0009843C177FD177D8F832784FD98C383275C
:1042000084FD9843B7070200F98F81C78327C4FE56
:1042100019A0832784FE3E85EF10001D2328A4FCEF
:10422000032704FDBA878607BA9713D7F7410D8B8A
:10423000BA9789873E87832784FB63CBE7020327EE
:1042400004FDBA878A07BA9713D7F7410D8BBA973F
:1042500089873E87832784FB634CF700832784FD8F
:104260009843B70704005D8F832784FD98C3B9A0E6
:10427000832584FB032504FDEFF07FD22326A4FCD5
:104280000327C4FCFD576302F7028327C4FC13977E
:104290005700B7670120938787A4BA973E86832586
:1042A00044FD032584FD553311A8832784FD9843DD
:1042B000B70704005D8F832784FD98C3832784FD9F
:1042C0009843C1675D8F832784FD98C30325C4FB92
:1042D000EFF0FFB5AA873E85B64026446161828033
:1042E000011106CE22CC0010EFF03F9F2326A4FE42
:1042F0008325C4FEB7170080138587A7EF10201110
:104300000100F240624405618280411122C600082A
:10431000B78700103E85324441018280797106D60C
:1043200022D40018232EA4FC232CB4FCF93FAA8726
:104330002326F4FE032784FD8327C4FEBA979C43FB
:104340003E85B250225445618280797106D622D4CE
:104350000018232EA4FC232CB4FC232AC4FC75379C
:10436000AA872326F4FE032784FD8327C4FEBA9779
:104370003E87832744FD1CC33E85B25022544561CD
:104380008280011122CE00102326A4FE0327C4FE42
:104390009387C1816315F700B727011011A08147EA
:1043A0003E85724405618280011122CE00102326D1
:1043B000A4FE0327C4FE9387C1816317F700B707E4
:1043C00000809387874411A081473E857244056130
:1043D0008280011122CE00102326A4FE2324B4FEE5
:1043E0000327C4FE9387C1816317F700832784FEE8
:1043F00099E3A14715AE0327C4FE9387C1816319D2
:10440000F700032784FE85476314F700A54729AE0C
:104410000327C4FE9387C1816319F700032784FE35
:1044200089476314F700A94701A60327C4FE9387B1
:10443000C1816319F700032784FE8D476314F700D9
:10444000AD47DDA40327C4FE9387C1816319F7003C
:10445000032784FE91476314F700B147F1A40327B3
:10446000C4FE9387C1816319F700032784FE954733
:104470006314F700B5474DAC0327C4FE9387C18191
:104480006319F700032784FE99476314F700B947BF
:1044900061AC0327C4FE9387C1816319F70003272A
:1044A00084FE9D476314F700BD47BDAC0327C4FEDF
:1044B0009387C1816319F700032784FEA147631422
:1044C000F700C14795A40327C4FE9387C1816319F0
:1044D000F700032784FEA5476314F700C547A9A486
:1044E0000327C4FE9387C1816319F700032784FE65
:1044F000A9476314F700C94705AC0327C4FE938797
:10450000C1816319F700032784FEAD476314F700E8
:10451000CD4719AC0327C4FE9387C1816319F70007
:10452000032784FEB1476314F700D147F5AA032798
:10453000C4FE9387C1816319F700032784FEB54742
:104540006314F700D547CDA20327C4FE9387C1812A
:104550006319F700032784FEB9476314F700D947AE
:10456000E1A20327C4FE9387C1816319F7000327E3
:1045700084FEBD476314F700DD477DA20327C4FE18
:104580009387C1816319F700032784FEC147631431
:10459000F700E14751AA0327C4FE9387C18163193D
:1045A000F700032784FEC5476314F700E547ADAA6B
:1045B0000327C4FE9387C1816319F700032784FE94
:1045C000C9476314F700E94785A20327C4FE938710
:1045D000C1816319F700032784FECD476314F700F8
:1045E000ED4799A20327C4FE9387C1816319F700A1
:1045F000032784FED1476314F700F14735A2032750
:10460000C4FE9387C1816319F700032784FED54751
:104610006314F700F54709AA0327C4FE9387C181F5
:104620006319F700032784FED9476314F700F9479D
:10463000E5A80327C4FE9387C1816319F700032708
:1046400084FEDD476314F700FD47F9A80327C4FE85
:104650009387C181631AF700032784FEE14763153E
:10466000F70093070002C9A00327C4FE9387C18106
:10467000631AF700032784FEE5476315F7009307E5
:1046800010025DA00327C4FE9387C181631AF7005F
:10469000032784FEE9476315F7009307200269A00A
:1046A0000327C4FE9387C181631AF700032784FEA2
:1046B000ED476315F70093073002BDA00327C4FE42
:1046C0009387C181631AF700032784FEF1476315BE
:1046D000F7009307400289A80327C4FE9387C1818E
:1046E0006319F700032784FEF5476314F700ED47CD
:1046F00025A80327C4FE9387C1816319F700032708
:1047000084FEF9476314F700F14739A80327C4FE74
:104710009387C1816319F700032784FEFD47631463
:10472000F700F54711A081473E85724405618280FC
:10473000797106D622D40018232EA4FC232CB4FCB5
:104740000325C4FDEFF0FFC3AA872326F4FE8327C9
:10475000C4FE91079843832784FD8326C4FE9106F7
:10476000D98F9CC281473E85B250225445618280D8
:10477000797106D622D40018232EA4FC232CB4FC75
:104780000325C4FDEFF0FFBFAA872326F4FE83278D
:10479000C4FE91079C43032784FD1347F7FFBA86A5
:1047A0000327C4FE1107F58F1CC381473E85B25015
:1047B000225445618280797106D622D40018232EB6
:1047C000A4FC0325C4FDEFF0DFBBAA872326F4FE7B
:1047D0008327C4FE9C433E85B250225445618280AB
:1047E000797106D622D40018232EA4FC0325C4FD1B
:1047F000EFF03FB9AA872326F4FE8327C4FEB10752
:104800009C433E85B250225445618280797106D620
:1048100022D40018232EA4FC232CB4FC0325C4FDB1
:10482000EFF03FB6AA872326F4FE8327C4FEA10734
:104830009C43032784FD1347F7FFBA860327C4FE72
:104840002107F58F1CC381473E85B2502254456134
:104850008280797106D622D40018232EA4FC232C42
:10486000B4FC0325C4FDEFF0DFB1AA872326F4FED4
:104870008327C4FEA1079843832784FD8326C4FEB3
:10488000A106D98F9CC281473E85B2502254456112
:104890008280797106D622D40018232EA4FC232C02
:1048A000B4FC0325C4FDEFF0DFADAA872326F4FE98
:1048B0008327C4FEB1079843832784FD8326C4FE63
:1048C000B106D98F9CC281473E85B25022544561C2
:1048D0008280797106D622D40018232EA4FC232CC2
:1048E000B4FC0325C4FDEFF0DFA9AA872326F4FE5C
:1048F0008327C4FEB1079C43032784FD1347F7FFBA
:10490000BA860327C4FE3107F58F1CC381473E8555
:10491000B250225445618280797106D622D40018A3
:10492000232EA4FC232CB4FC0325C4FDEFF07FA5AB
:10493000AA872326F4FE8327C4FEB1079843832762
:1049400084FD8326C4FEB106B98F9CC281473E8593
:10495000B250225445618280797106D622D4001863
:10496000232EA4FC232CB4FC232AC4FC0325C4FD61
:10497000EFF03FA1AA872326F4FE8327C4FE938786
:10498000C7039C43032784FD1347F7FFBA86032719
:10499000C4FE1307C703F58F1CC38327C4FE938788
:1049A00087039843832744FD8326C4FE93868603AA
:1049B000D98F9CC281473E85B25022544561828086
:1049C000797106D622D40018232EA4FC232CB4FC23
:1049D0000325C4FDEFF0FF9AAA872326F4FE832760
:1049E000C4FE938787039C43032784FD1347F7FF87
:1049F000BA860327C4FE13078703F58F1CC38147BC
:104A00003E85B250225445618280797106D622D407
:104A10000018232EA4FC232CB4FC232AC4FC032559
:104A2000C4FDEFF01F96AA872326F4FE032744FD5A
:104A30009D4763E9E71C832744FD13972700B76769
:104A400001209387472DBA979C4382878327C4FE12
:104A5000E1079C43032784FD1347F7FFBA8603272A
:104A6000C4FE6107F58F1CC38327C4FE938707022A
:104A70009C43032784FD1347F7FFBA860327C4FE30
:104A800013070702F58F1CC38327C4FE9387870291
:104A90009C43032784FD1347F7FFBA860327C4FE10
:104AA00013078702F58F1CC38327C4FE9387070370
:104AB0009C43032784FD1347F7FFBA860327C4FEF0
:104AC00013070703F58F1CC335AA8327C4FEE1072C
:104AD0009843832784FD8326C4FEE106D98F9CC2B8
:104AE00015A28327C4FE938707029843832784FD7A
:104AF0008326C4FE93860602D98F9CC221A28327F7
:104B0000C4FEE1079843832784FD8326C4FEE106A3
:104B1000D98F9CC28327C4FE9387070298438327BB
:104B200084FD8326C4FE93860602D98F9CC2D9A831
:104B30008327C4FE938787029843832784FD8326B7
:104B4000C4FE93868602D98F9CC26DA88327C4FEBB
:104B5000938707039843832784FD8326C4FE9386A7
:104B60000603D98F9CC279A88327C4FE9387870246
:104B70009843832784FD8326C4FE93868602D98FBB
:104B80009CC28327C4FE938707039843832784FD31
:104B90008326C4FE93860603D98F9CC2A5A08327D3
:104BA000C4FEE1079843832784FD8326C4FEE10603
:104BB000D98F9CC28327C4FE93870702984383271B
:104BC00084FD8326C4FE93860602D98F9CC2832768
:104BD000C4FE938787029843832784FD8326C4FEFF
:104BE00093868602D98F9CC28327C4FE93870703CE
:104BF0009843832784FD8326C4FE93860603D98FBA
:104C00009CC2010081473E85B2502254456182809A
:104C1000797106D622D40018232EA4FC232CB4FCD0
:104C2000232AC4FC0325C4FDEFF0AFF5AA87232691
:104C3000F4FE032744FD9D4763EAE714832744FD00
:104C400013972700B76701209387472FBA979C4394
:104C500082878327C4FEF1079843832784FD832638
:104C6000C4FEF106D98F9CC215A28327C4FE938788
:104C700047029843832784FD8326C4FE9386460219
:104C8000D98F9CC221A28327C4FEF10798438327B2
:104C900084FD8326C4FEF106D98F9CC28327C4FEFF
:104CA000938747029843832784FD8326C4FE938617
:104CB0004602D98F9CC2D9A88327C4FE9387C70216
:104CC0009843832784FD8326C4FE9386C602D98F2A
:104CD0009CC26DA88327C4FE93874703984383270C
:104CE00084FD8326C4FE93864603D98F9CC279A88F
:104CF0008327C4FE9387C7029843832784FD8326B6
:104D0000C4FE9386C602D98F9CC28327C4FE9387B4
:104D100047039843832784FD8326C4FE9386460376
:104D2000D98F9CC2A5A08327C4FEF107984383278F
:104D300084FD8326C4FEF106D98F9CC28327C4FE5E
:104D4000938747029843832784FD8326C4FE938676
:104D50004602D98F9CC28327C4FE9387C70298431B
:104D6000832784FD8326C4FE9386C602D98F9CC206
:104D70008327C4FE938747039843832784FD8326B4
:104D8000C4FE93864603D98F9CC2010081473E85AD
:104D9000B250225445618280011106CE22CC00100F
:104DA0002326A4FE0325C4FEEFF00FE0AA873E856C
:104DB000F240624405618280797106D622D40018DF
:104DC000232EA4FC232CB4FC832584FD0325C4FDE1
:104DD000EFF02FE02326A4FE8327C4FE3E85B250C9
:104DE000225445618280011122CE00102326A4FEA8
:104DF0000327C4FEB7170080938707A26315F70047
:104E0000B737011029A80327C4FEB717008093877E
:104E100007A46315F700B737021011A081473E853C
:104E2000724405618280011122CE00102326A4FE67
:104E30000327C4FEB7170080938707A26317F70004
:104E4000B70700809387874421A80327C4FEB717BC
:104E50000080938707A46314F700814711A081475E
:104E60003E85724405618280011122CE0010232606
:104E7000A4FE0327C4FEB7170080938707A263141C
:104E8000F7008D4721A80327C4FEB717008093873A
:104E900007A46314F700914711A081473E8572442F
:104EA00005618280011122CE00102326A4FE032773
:104EB000C4FEB7170080938707A26317F700B717E0
:104EC0000080938787A739A80327C4FEB7170080FF
:104ED000938707A46317F700B7170080938787A706
:104EE00011A081473E85724405618280011122CE66
:104EF00000102326A4FE0327C4FEB7170080938763
:104F000007A26315F7009387C18129A80327C4FE70
:104F1000B7170080938707A46315F7009387C181B3
:104F200011A081473E85724405618280011122CE25
:104F300000102326A4FE0327C4FEB7170080938722
:104F400007A26315F700B707030029A80327C4FECB
:104F5000B7170080938707A46315F700B70784008D
:104F600011A081473E85724405618280011122CEE5
:104F700000102326A4FE0327C4FEB71700809387E2
:104F800007A26315F700B707030029A80327C4FE8B
:104F9000B7170080938707A46315F700B70784004D
:104FA00011A081473E85724405618280011106CEC1
:104FB00022CC00102326A4FE0325C4FEEFF0BFE69A
:104FC000AA873E85F240624405618280011106CEC7
:104FD00022CC00102326A4FE0325C4FEEFF0DFE858
:104FE000AA87938707023E85F2406244056182806A
:104FF000797106D622D40018232EA4FC0325C4FD03
:10500000EFF07FDEAA872326F4FE8327C4FE9C43AD
:1050100093C7F7FFFD8393F7F70F3E85B2502254F5
:1050200045618280797106D622D40018232EA4FC13
:10503000232CB4FC0325C4FDEFF0FFDAAA87232656
:10504000F4FE01000325C4FD6537AA87E5DF832749
:10505000C4FE032784FD98C381473E85B250225485
:1050600045618280797106D622D40018232EA4FCD3
:10507000232CB4FC0325C4FDEFF0FFD6AA8723261A
:10508000F4FE8327C4FE91079C432324F4FE832768
:1050900084FE63D70700832784FD7D5798C301A84A
:1050A000832784FE13F7F70F832784FD98C3814776
:1050B0003E85B250225445618280797122D6001813
:1050C000232EA4FC8327C4FD2326F4FE8327C4FEDD
:1050D000DC433E85325445618280797106D622D404
:1050E0000018232EA4FC232CB4FC8327C4FD232604
:1050F000F4FE0325C4FDEFF01FCFAA872324F4FE9E
:105100000325C4FDEFF01FDA2322A4FE032784FD4C
:105110008327C4FED8C3832744FEB1CB832744FE34
:105120009C439C43032544FE82972320A4FE03272F
:1051300004FE832784FDB347F7021387F7FF832715
:1051400084FEE10798C3832784FEA1079C430327BD
:1051500084FE210793E717001CC3832784FEB10751
:105160009C43032784FE310793E717001CC3814744
:105170003E85B250225445618280397106DE22DCC0
:1051800080002326A4FC8327C4FC2326F4FE0325E9
:10519000C4FCEFF05FC5AA872324F4FE0325C4FCFA
:1051A000EFF05FD02322A4FE832784FEA10798435B
:1051B000832784FEA107BE86B707F9FFFD17F98F85
:1051C0009CC2832784FEA1079843832784FEA107FE
:1051D000BE86C167D98F9CC20100832784FED10798
:1051E0009C43858BFDDB832784FEA1079C43898B31
:1051F00099C3A54711A0A9472320F4FE832744FEA5
:105200009C439C43032544FE8297232EA4FC032742
:1052100004FE8327C4FDB307F7023E878327C4FE3D
:10522000DC43B357F702232CF4FC232A04FC39A0F7
:105230000100832744FD8507232AF4FC832744FDCE
:10524000032784FDE3C6E7FE0100F25062542161AA
:105250008280797106D622D40018232EA4FC8327DD
:10526000C4FD2326F4FE0327C4FE8327C4FEDC43CB
:10527000BE853A85EFC0EFA30100B25022544561CC
:105280008280397106DE22DC80002326A4FC2324E0
:10529000B4FC8327C4FC2326F4FE0325C4FCEFF0F2
:1052A0007FC02324A4FE0325C4FCEFF03FC42322C7
:1052B000A4FE832784FEB9C78327C4FE3757012085
:1052C0001307A71798C78327C4FE0327C4FCD8C7B2
:1052D0008327C4FEA107BE85032584FEAD2A83274C
:1052E000C4FE3757012013072725D8CB8327C4FED8
:1052F0000327C4FC98CF8327C4FED107BE850325AE
:1053000084FE51228327C4FE832584FC3E85EFC0A2
:105310004F9A832744FE95CB0325C4FCEFF01FC1B1
:10532000AA872320F4FE0325C4FCEFF03FC4AA871C
:10533000232EF4FC832744FE9C43DC530326C4FD48
:10534000832504FE032544FE82970100F250625437
:1053500021618280797106D622D40018232EA4FC04
:105360008327C4FD2326F4FE31A88327C4FE984377
:105370008327C4FEDC433E8502978327C4FE9C47F7
:105380002326F4FE8327C4FEEDF30100B25022541D
:1053900045618280797122D60018232EA4FC232C2B
:1053A000B4FC832784FD23A407008327C4FD81E781
:1053B000832784FD35A08327C4FD2326F4FE31A076
:1053C0008327C4FE9C472326F4FE8327C4FE9C4704
:1053D000E5FB8327C4FE032784FD98C78327C4FD0C
:1053E0003E85325445618280011106CE22CC0010E8
:1053F0002326A4FE8327C4FE9C439C430325C4FEAE
:105400008297AA873E85F240624405618280797165
:1054100006D622D40018232EA4FC232CB4FC832708
:10542000C4FDDC433E853D378327C4FD9C43DC43FC
:10543000832584FD0325C4FD82972326A4FE8327AC
:10544000C4FD9C473E8539378327C4FE3E85B25054
:10545000225445618280011106CE22CC0010232601
:10546000A4FE2324B4FE8327C4FEDC43832584FEEC
:105470003E850D372A878327C4FED8C30100F2403A
:10548000624405618280011106CE22CC00102326E1
:10549000A4FE2324B4FE8327C4FE9C47832584FEF8
:1054A0003E85EFF03FEF2A878327C4FE98C70100AF
:1054B000F240624405618280011106CE22CC0010C8
:1054C0002326A4FE8327C4FE9C43DC570325C4FE89
:1054D0008297AA873E85F24062440561828001116D
:1054E00022CE00102326A4FE8327C4FE89EB0327C7
:1054F000C4FE0A079387C180BA979C4311A08147D5
:105500003E85724405618280011122CE0010F3278E
:1055100040F12326F4FE8327C4FE3E8572440561D4
:105520008280011122CE00102326A4FE0100FDBFBF
:10553000000000000000000000000000000000006B
:10554000000000000000000000000000000000005B
:10555000000000000000000000000000000000004B
:10556000000000000000000000000000000000003B
:10557000000000000000000000000000000000002B
:105580006FC09F886FC05F886FC01F886FC0BF8A61
:105590006FC09F876FC05F876FC01F876FC0DF9826
:1055A0006FC09F866FC05F866FC01F866FC0DF852C
:1055B0006FC09F856FC05F856FC01F856FC0DF8420
:1055C0006FC03FC36FC01FCC6FC0FFD46FC0DFDDA3
:1055D0006FC0BFE66FC09FEF6FC07FF86FD04F8185
:1055E0006FD02F8A6FD00F936FD0EF9B6FD0CFA467
:1055F0006FD0AFAD6FD08FB66FD06FBF6FD04FC8C9
:10560000011122CE00102326A4FE0327C4FEB707F3
:105610000080938707066317F700B727F400938786
:10562000074099A00327C4FEB70700809387C706E9
:105630006317F700B7A74A049387072035A003270D
:10564000C4FEB7070080938787076314F700A1673C
:1056500021A80327C4FEB707008093874708631477
:10566000F700A16711A081473E85724405618280E1
:10567000011106CE22CC00102326A4FE0325C4FE71
:105680004137AA873E85F24062440561828001115C
:1056900006CE22CC00102326A4FE2324B4FE03252C
:1056A000C4FEF937AA873E85F240624405618280D4
:1056B000011106CE22CC00102326A4FE0325C4FE31
:0456C000EFF03FE6E2
:1056C4002D2D2D2D20486946697665312052657649
:1056D400204220576946692044656D6F202D2D2D89
:1056E4002D2D2D2D2D0D00002A20554152543A20E8
:1056F400313135323030206270730D002A2053501E
:10570400493A203830204B487A0D00002A20435073
:10571400553A20333230204D487A0D00456E746579
:105724007220636F6D6D616E643A20000D0000009D
:105734000000000000000000000000000000000065
:105744000000000000000000000000000000000055
:105754000000000000000000000000000000000045
:105764000000000000000000000000000000000035
:105774000000000000000000000000000000000025
:105784000000000000000000000000000000000015
:105794009C570120000000006C6962676C6F737392
:1057A40000000000FC160120A21801208618012028
:1057B40000000000000000008E1B0120C21B01201D
:1057C400841701205E180120F6180120A819012071
:1057D40000000000000000000000000000000000C5
:1057E40000000000000000005A1A012030160120B9
:1057F400E62B0120D82B0120AC2B0120AC2B01205F
:10580400C22B0120222C0120262C0120262C012031
:10581400262C0120222C0120262C0120262C0120BC
:10582400262C0120222C0120262C0120262C0120AC
:10583400262C0120262C0120222C0120222C0120A0
:10584400222C0120222C0120222C0120222C012098
:10585400222C0120222C0120222C0120222C012088
:10586400222C0120222C0120222C0120222C012078
:10587400222C0120222C0120742C0120DA2C01205E
:10588400DA2C0120862C0120DA2C0120DA2C0120CC
:10589400DA2C0120982C0120DA2C0120DA2C0120AA
:1058A400DA2C0120AA2C0120DA2C0120DA2C012088
:1058B400DA2C0120DA2C0120BC2C0120BC2C012084
:1058C400BC2C0120BC2C0120BC2C0120BC2C0120B0
:1058D400BC2C0120BC2C0120BC2C0120BC2C0120A0
:1058E400BC2C0120BC2C0120BC2C0120BC2C012090
:1058F400BC2C0120BC2C0120062F0120B42F012038
:10590400B42F0120B42F0120402F0120B42F0120F7
:10591400B42F0120B42F01207A2F0120B42F0120AD
:10592400B42F0120B42F0120B42F01207A2F01209D
:105934007A2F01207A2F01207A2F01207A2F01203B
:105944007A2F01207A2F01207A2F01207A2F01202B
:105954007A2F01207A2F01207A2F01207A2F01201B
:105964007A2F01207A2F01207A2F01203C2D01204B
:10597400383001201C30012000000000000000002D
:1059840000000000000000007A2E0120000000004A
:10599400C82F0120F22F01200000000000000000A9
:1059A40000000000000000000000000000000000F3
:1059B4009430012000000000B03001202231012089
:1059C40068310120CE310120443201205A320120B5
:1059D4006E3201208432012098320120FA320120F3
:1059E4005C330120BC330120DC330120223401204C
:1059F400503401206E340120E637012000000000FD
:105A04000000000000000000000000000000000092
:105A1400000000002239012000000000E2390120CA
:105A24002A3A01200000000000000000F2350120A5
:105A3400BA350120803601201E3601200000000006
:105A4400000000000100000020000000001BB7005F
:105A540000366E01010000001F000000030000007A
:105A64003F000000010000002000000000366E012D
:105A7400006CDC02030000001F00000002000000B4
:105A84003F0000000100000010000000808D5B005A
:105A9400001BB700000000001F000000030000000E
:105AA4003F0000000100000010000000001BB700D0
:105AB40000366E01010000001F000000020000001B
:105AC4003F000000010000001000000000366E01DD
:105AD400006CDC02030000001F0000000200000054
:105AE4001F0000000100000008000000808D5B0022
:105AF400001BB700000000001F00000003000000AE
:105B04001F0000000100000008000000001BB70097
:105B140000366E01010000001F00000002000000BA
:105B24001F000000010000000800000000366E01A4
:105B3400006CDC02030000001F00000002000000F3
